{
  "address": "0xF9A8d80c4aedec3cF9345F832565828a8D3ef27A",
  "abi": [
    {
      "inputs": [
        {
          "internalType": "address",
          "name": "exampleExternalContractAddress",
          "type": "address"
        }
      ],
      "stateMutability": "nonpayable",
      "type": "constructor"
    },
    {
      "anonymous": false,
      "inputs": [
        {
          "indexed": false,
          "internalType": "string",
          "name": "message",
          "type": "string"
        }
      ],
      "name": "Message",
      "type": "event"
    },
    {
      "anonymous": false,
      "inputs": [
        {
          "indexed": true,
          "internalType": "address",
          "name": "staker",
          "type": "address"
        },
        {
          "indexed": false,
          "internalType": "uint256",
          "name": "amount",
          "type": "uint256"
        }
      ],
      "name": "Stake",
      "type": "event"
    },
    {
      "inputs": [
        {
          "internalType": "address",
          "name": "",
          "type": "address"
        }
      ],
      "name": "balances",
      "outputs": [
        {
          "internalType": "uint256",
          "name": "",
          "type": "uint256"
        }
      ],
      "stateMutability": "view",
      "type": "function"
    },
    {
      "inputs": [],
      "name": "deadline",
      "outputs": [
        {
          "internalType": "uint256",
          "name": "",
          "type": "uint256"
        }
      ],
      "stateMutability": "view",
      "type": "function"
    },
    {
      "inputs": [],
      "name": "exampleExternalContract",
      "outputs": [
        {
          "internalType": "contract ExampleExternalContract",
          "name": "",
          "type": "address"
        }
      ],
      "stateMutability": "view",
      "type": "function"
    },
    {
      "inputs": [],
      "name": "execute",
      "outputs": [],
      "stateMutability": "nonpayable",
      "type": "function"
    },
    {
      "inputs": [],
      "name": "openForExecute",
      "outputs": [
        {
          "internalType": "bool",
          "name": "",
          "type": "bool"
        }
      ],
      "stateMutability": "view",
      "type": "function"
    },
    {
      "inputs": [],
      "name": "openForWithdraw",
      "outputs": [
        {
          "internalType": "bool",
          "name": "",
          "type": "bool"
        }
      ],
      "stateMutability": "view",
      "type": "function"
    },
    {
      "inputs": [],
      "name": "stake",
      "outputs": [],
      "stateMutability": "payable",
      "type": "function"
    },
    {
      "inputs": [],
      "name": "threshold",
      "outputs": [
        {
          "internalType": "uint256",
          "name": "",
          "type": "uint256"
        }
      ],
      "stateMutability": "view",
      "type": "function"
    },
    {
      "inputs": [],
      "name": "timeLeft",
      "outputs": [
        {
          "internalType": "uint256",
          "name": "",
          "type": "uint256"
        }
      ],
      "stateMutability": "view",
      "type": "function"
    },
    {
      "inputs": [],
      "name": "withdraw",
      "outputs": [],
      "stateMutability": "nonpayable",
      "type": "function"
    },
    {
      "stateMutability": "payable",
      "type": "receive"
    }
  ],
  "transactionHash": "0x4fdbd8120e64d0db276af9870bb7ed255dd76d4877e94cb789b3db2808231889",
  "args": [
    "0xc5dA00eF9aAC7e88D5E67CE99168b9486D08EBec"
  ],
  "numDeployments": 1,
  "solcInputHash": "2ffde5e7b53e22bd1bd670a11a481c7f",
  "bytecode": "0x6080604052610011426203f480610092565b60005534801561002057600080fd5b506040516109de3803806109de83398101604081905261003f91610064565b600180546001600160a01b0319166001600160a01b03929092169190911790556100b6565b600060208284031215610075578081fd5b81516001600160a01b038116811461008b578182fd5b9392505050565b600082198211156100b157634e487b7160e01b81526011600452602481fd5b500190565b610919806100c56000396000f3fe6080604052600436106100955760003560e01c80633ccfd60b116100595780633ccfd60b1461014b57806342cde4e814610160578063614619541461017c5780639876a643146101915780639f75f227146101ab57600080fd5b80631300a6d1146100a957806321840136146100d157806327e235e31461010057806329dcb0cf1461012d5780633a4b66f11461014357600080fd5b366100a4576100a26101e3565b005b600080fd5b3480156100b557600080fd5b506100be6103a3565b6040519081526020015b60405180910390f35b3480156100dd57600080fd5b506003546100f090610100900460ff1681565b60405190151581526020016100c8565b34801561010c57600080fd5b506100be61011b366004610819565b60026020526000908152604090205481565b34801561013957600080fd5b506100be60005481565b6100a26101e3565b34801561015757600080fd5b506100a26103c6565b34801561016c57600080fd5b506100be670de0b6b3a764000081565b34801561018857600080fd5b506100a2610631565b34801561019d57600080fd5b506003546100f09060ff1681565b3480156101b757600080fd5b506001546101cb906001600160a01b031681565b6040516001600160a01b0390911681526020016100c8565b600160009054906101000a90046001600160a01b03166001600160a01b0316639d9a7fe96040518163ffffffff1660e01b815260040160206040518083038186803b15801561023157600080fd5b505afa158015610245573d6000803e3d6000fd5b505050506040513d601f19601f820116820180604052508101906102699190610847565b1561028f5760405162461bcd60e51b815260040161028690610867565b60405180910390fd5b60005442106102f85760405162461bcd60e51b815260206004820152602f60248201527f5374616b65723a20596f752063616e2774207374616b6520746865206465616460448201526e1b1a5b99481dd85cc81c185cdcd959608a1b6064820152608401610286565b600034116103485760405162461bcd60e51b815260206004820152601a60248201527f5374616b65723a2043616e6e6f74207374616b652030204554480000000000006044820152606401610286565b336000908152600260205260408120805434929061036790849061089e565b909155505060405134815233907febedb8b3c678666e7f36970bc8f57abf6d8fa2e828c0da91ea5b75bf68ed101a9060200160405180910390a2565b6000805442106103b35750600090565b426000546103c191906108b6565b905090565b600160009054906101000a90046001600160a01b03166001600160a01b0316639d9a7fe96040518163ffffffff1660e01b815260040160206040518083038186803b15801561041457600080fd5b505afa158015610428573d6000803e3d6000fd5b505050506040513d601f19601f8201168201806040525081019061044c9190610847565b156104695760405162461bcd60e51b815260040161028690610867565b60005442116104ba5760405162461bcd60e51b815260206004820152601e60248201527f5374616b65723a20446561646c696e65206861736e27742070617373656400006044820152606401610286565b670de0b6b3a76400004711156105385760405162461bcd60e51b815260206004820152603760248201527f5374616b65723a2054686520676f616c20776173206d65742c20796f7520636160448201527f6e277420776974686472617720796f75722066756e64730000000000000000006064820152608401610286565b336000908152600260205260409020546105a55760405162461bcd60e51b815260206004820152602860248201527f5374616b65723a20596f7520646f6e277420686176652066756e647320746f20604482015267776974686472617760c01b6064820152608401610286565b60035460ff166105b7576105b7610631565b60035460ff16151560011480156105dc57503360009081526002602052604090205415155b1561062f5733600081815260026020526040808220549051839282156108fc02929190818181858888f1935050505015801561061c573d6000803e3d6000fd5b5050336000908152600260205260408120555b565b600160009054906101000a90046001600160a01b03166001600160a01b0316639d9a7fe96040518163ffffffff1660e01b815260040160206040518083038186803b15801561067f57600080fd5b505afa158015610693573d6000803e3d6000fd5b505050506040513d601f19601f820116820180604052508101906106b79190610847565b156106d45760405162461bcd60e51b815260040161028690610867565b60005442116107255760405162461bcd60e51b815260206004820152601e60248201527f5374616b65723a20446561646c696e65206861736e27742070617373656400006044820152606401610286565b600354610100900460ff161561077d5760405162461bcd60e51b815260206004820152601e60248201527f5374616b65723a204578656375746520616c72656164792063616c6c656400006044820152606401610286565b670de0b6b3a764000047106107fa57600160009054906101000a90046001600160a01b03166001600160a01b031663522e1177476040518263ffffffff1660e01b81526004016000604051808303818588803b1580156107dc57600080fd5b505af11580156107f0573d6000803e3d6000fd5b5050505050610808565b6003805460ff191660011790555b6003805461ff001916610100179055565b60006020828403121561082a578081fd5b81356001600160a01b0381168114610840578182fd5b9392505050565b600060208284031215610858578081fd5b81518015158114610840578182fd5b60208082526019908201527f5374616b65723a205374616b696e6720636f6d706c6574656400000000000000604082015260600190565b600082198211156108b1576108b16108cd565b500190565b6000828210156108c8576108c86108cd565b500390565b634e487b7160e01b600052601160045260246000fdfea264697066735822122088be6d827158c44b1371d851d0e2d444d1904632c870805eb0e3ddac9172707364736f6c63430008040033",
  "devdoc": {
    "kind": "dev",
    "methods": {},
    "version": 1
  },
  "userdoc": {
    "kind": "user",
    "methods": {},
    "version": 1
  },
  "storageLayout": {
    "storage": [
      {
        "astId": 25,
        "contract": "contracts/Staker.sol:Staker",
        "label": "deadline",
        "offset": 0,
        "slot": "0",
        "type": "t_uint256"
      },
      {
        "astId": 28,
        "contract": "contracts/Staker.sol:Staker",
        "label": "exampleExternalContract",
        "offset": 0,
        "slot": "1",
        "type": "t_contract(ExampleExternalContract)12"
      },
      {
        "astId": 32,
        "contract": "contracts/Staker.sol:Staker",
        "label": "balances",
        "offset": 0,
        "slot": "2",
        "type": "t_mapping(t_address,t_uint256)"
      },
      {
        "astId": 34,
        "contract": "contracts/Staker.sol:Staker",
        "label": "openForWithdraw",
        "offset": 0,
        "slot": "3",
        "type": "t_bool"
      },
      {
        "astId": 36,
        "contract": "contracts/Staker.sol:Staker",
        "label": "openForExecute",
        "offset": 1,
        "slot": "3",
        "type": "t_bool"
      }
    ],
    "types": {
      "t_address": {
        "encoding": "inplace",
        "label": "address",
        "numberOfBytes": "20"
      },
      "t_bool": {
        "encoding": "inplace",
        "label": "bool",
        "numberOfBytes": "1"
      },
      "t_contract(ExampleExternalContract)12": {
        "encoding": "inplace",
        "label": "contract ExampleExternalContract",
        "numberOfBytes": "20"
      },
      "t_mapping(t_address,t_uint256)": {
        "encoding": "mapping",
        "key": "t_address",
        "label": "mapping(address => uint256)",
        "numberOfBytes": "32",
        "value": "t_uint256"
      },
      "t_uint256": {
        "encoding": "inplace",
        "label": "uint256",
        "numberOfBytes": "32"
      }
    }
  }
}